S0120000414D49545F46494E414C2E737265631E
S11300000C942A000C943C000C943C000C943C008E
S11300100C943C000C943C000C943C000C943C006C
S11300200C943C000C943C000C943C000C94ED00AB
S11300300C943C000C948A000C943C000C943C00FE
S11300400C94AF000C943C000C943C000C943C00C9
S11300500C943C0011241FBECFE5D8E0DEBFCDBF19
S113006020E0A0E6B0E001C01D92A236B207E1F79D
S11300700E9427010C947A030C94000088309105A7
S113008024F497B1907E892B87B9089527B1002471
S1130090969587950794969587950794982F802D24
S11300A02F73822B87B90895339B0BC096B1977F2A
S11300B096B996B1987F892B86B986B1886086B93E
S11300C0089596B1987F892B86B908950F931F934D
S11300D0CF93DF938B01EA010E943E00C8010E9486
S11300E04600CE010E94540086B1886086B986B16C
S11300F0806886B9DF91CF911F910F91089586B1E1
S1130100806486B9089524B185B190E0982F88273A
S1130110822B08951F920F920FB60F9211242F93E2
S11301203F934F935F936F937F938F939F93AF937B
S1130130BF93EF93FF938CB10E945101FF91EF9114
S1130140BF91AF919F918F917F916F915F914F91EB
S11301503F912F910F900FBE0F901F9018951F92F3
S11301600F920FB60F9211242F933F934F935F93E7
S11301706F937F938F939F93AF93BF93EF93FF936B
S11301800E948300BC01990F880B990B0E942402E2
S113019020E93EE34AEF5EE30E9488020E94EC01FC
S11301A06E3171052CF085E090E00E946B0104C073
S11301B086E090E00E946B01FF91EF91BF91AF91B7
S11301C09F918F917F916F915F914F913F912F916B
S11301D00F900FBE0F901F9018951F920F920FB69D
S11301E00F9211242F933F934F935F936F937F93B9
S11301F08F939F93AF93BF93EF93FF9320916000EE
S113020030916100C9016DE370E00E941D03892BE8
S113021021F4232B11F00E947F00809160009091C3
S1130220610001969093610080936000FF91EF91CB
S1130230BF91AF919F918F917F916F915F914F91FA
S11302403F912F910F900FBE0F901F9018950E9411
S1130250E60181E090E00E94410140E050E060E06E
S113026070E080E090E00E94660020E030E040E032
S113027050E065E070E080E090E00E94C70178946F
S1130280FFCF019739F487B3806B87BB8DB1806151
S11302908DB903C087B3806487BB8DB183648DB986
S11302A008958FB9779BFECF08950F931F93CF9333
S11302B0DF938C01C0E0D0E003C00E94510121967D
S11302C0F801EC0FFD1F80818111F7CFDF91CF91F1
S11302D01F910F910895CF93DF93CDB7DEB72A977F
S11302E00FB6F894DEBF0FBECDBF4AE0BE016F5F0C
S11302F07F4F0E944503CE0101960E9455012A9624
S11303000FB6F894DEBF0FBECDBFDF91CF91089535
S113031093B7892B83BF089523B7880F991F880F3C
S1130320991F880F991F822B83BF089527B32860D4
S113033027BB23B782959295907F9827807F982733
S1130340822B83BF08958330910521F489B78C7F74
S113035089BF089549B721E030E0B90102C0660FB2
S1130360771F8A95E2F7CB01842B89BF0895BC01DE
S1130370990F880B990B0E94240223E333E343E291
S113038050E40E9488020E94F3016CBF0895EF922A
S1130390FF920F931F93CF93DF93EB017A018901AF
S11303A00E948C01C7010E94960182E390E00E94A2
S11303B0B701C8010E94A301CE010E948801DF9108
S11303C0CF911F910F91FF90EF9008958AB18869A2
S11303D08AB987E689B908950E94F3016894B11136
S11303E00C94820208950E94670288F09F5798F047
S11303F0B92F9927B751B0F0E1F0660F771F881F26
S1130400991F1AF0BA95C9F714C0B13091F00E943F
S11304108102B1E008950C948102672F782F882718
S1130420B85F39F0B93FCCF3869577956795B39566
S1130430D9F73EF490958095709561957F4F8F4FD5
S11304409F4F0895E89409C097FB3EF490958095DA
S1130450709561957F4F8F4F9F4F9923A9F0F92F86
S113046096E9BB279395F695879577956795B79504
S1130470F111F8CFFAF4BB0F11F460FF1BC06F5FEA
S11304807F4F8F4F9F4F16C0882311F096E911C0FC
S1130490772321F09EE8872F762F05C0662371F01D
S11304A096E8862F70E060E02AF09A95660F771F31
S11304B0881FDAF7880F9695879597F9089557FD61
S11304C09058440F551F59F05F3F71F04795880FBE
S11304D097FB991F61F09F3F79F087950895121655
S11304E013061406551FF2CF4695F1DF08C0161601
S11304F017061806991FF1CF8695710561050894B2
S11305000895E894BB2766277727CB0197F90895C8
S11305100E949B020C940C030E94FE0238F00E947D
S1130520050320F0952311F00C94F5020C94FB02C2
S113053011240C9482020E945F0270F3959FC1F310
S1130540950F50E0551F629FF001729FBB27F00D7D
S1130550B11D639FAA27F00DB11DAA1F649F6627D2
S1130560B00DA11D661F829F2227B00DA11D621F21
S1130570739FB00DA11D621F839FA00D611D221FDB
S1130580749F3327A00D611D231F849F600D211DBF
S1130590822F762F6A2F11249F5750409AF0F1F042
S11305A088234AF0EE0FFF1FBB1F661F771F881FAB
S11305B091505040A9F79E3F510580F00C94F502EC
S11305C00C9482025F3FE4F3983ED4F386957795CA
S11305D06795B795F795E7959F5FC1F7FE2B880F51
S11305E0911D9695879597F9089597F99F6780E8E7
S11305F070E060E008959FEF80EC089500240A9471
S11306001616170618060906089500240A941216E9
S11306101306140605060895092E0394000C11F41C
S1130620882352F0BB0F40F4BF2B11F460FF04C0C9
S11306306F5F7F4F8F4F9F4F089597FB072E16F4E0
S1130640009407D077FD09D00E94310307FC05D040
S11306503EF4909581959F4F0895709561957F4FD5
S11306600895AA1BBB1B51E107C0AA1FBB1FA617F5
S1130670B70710F0A61BB70B881F991F5A95A9F747
S113068080959095BC01CD010895BB274A3031F483
S1130690992322F4BDE2909581959F4F0C945103C8
S11306A0BB27FB015527AA27880F991FAA1FA41748
S11306B010F0A41B83955051B9F7A05DAA3308F03C
S11306C0A95DA193009779F7B111B1931192CB0170
S11306D00C946A03DC01FC01672F71917723E1F725
S11306E0329704C07C916D9370836291AE17BF07FB
S10B06F0C8F30895F894FFCF4C
S9030000FC
