:100000000C942A000C9434000C9434000C943400AA
:100010000C9434000C9434000C9434000C94340090
:100020000C9434000C9434000C9434000C94340080
:100030000C9434000C9434000C9434000C94340070
:100040000C9434000C9434000C9434000C94340060
:100050000C94340011241FBECFE5D8E0DEBFCDBF25
:100060000E9436000C9479000C9400000E947300EA
:1000700080E090E00E945F0087E084BB0E946F00F8
:10008000813319F495B3916095BB823319F495B31C
:10009000926095BB833319F495B39E7F95BB8433EF
:1000A00019F495B39D7F95BB853319F495B394608E
:1000B00095BB863319F785B38B7F85BBDFCF01975F
:1000C00039F487B3806B87BB8DB180618DB903C074
:1000D00087B3806487BB8DB183648DB90895779BA6
:1000E000FECF8FB108958AB188698AB987E689B948
:0600F0000895F894FFCF13
:00000001FF
